S012000054696D6572735F50574D2E737265634B
S11300000C942A000C943C000C943C000C943C008E
S11300100C943C000C943C000C943C000C943C006C
S11300200C943C000C943C000C943C000C943C005C
S11300300C943C000C943C000C943C000C943C004C
S11300400C943C000C943C000C943C000C943C003C
S11300500C943C0011241FBECFE5D8E0DEBFCDBF19
S113006020E0A0E6B0E001C01D92A036B207E1F79F
S11300700E9445000C944A000C94000012BE89B7FB
S1130080816089BF85E883BF0895949A94980E94FB
S10B00903E00FFCFF894FFCFFE
S9030000FC
