S0110000736572766F4D6F76652E737265634D
S11300000C942A000C9434000C9434000C943400A6
S11300100C9434000C9434000C9434000C9434008C
S11300200C9434000C9434000C9434000C9434007C
S11300300C9434000C9434000C9434000C9434006C
S11300400C9434000C9434000C9434000C9434005C
S11300500C94340011241FBECFE5D4E0DEBFCDBF25
S11300600E9443000C946C000C9400001DBC1CBC4A
S113007023EC39E037BD26BD9BBD8ABD99BD88BD43
S113008082E88FBD08958D9A81E690E00E94360043
S11300902FE784E89EE1215080409040E1F700C0C2
S11300A000008CE391E00E9436002FE784E89EE193
S11300B0215080409040E1F700C0000087E192E0C9
S11300C00E9436002FE784E89EE121508040904052
S10F00D0E1F700C00000D8CFF894FFCF87
S9030000FC
