S00D00004D6F64656C2E7372656326
S11300000C942A000C9447000C9447000C9447006D
S11300100C9447000C9447000C9447000C94470040
S11300200C9447000C9447000C9447000C94470030
S11300300C9447000C9447000C9447000C94470020
S11300400C9447000C9447000C9447000C94470010
S11300500C94470011241FBECFE5D8E0DEBFCDBF0E
S113006010E0A0E6B0E0E0EEF0E002C005900D92F2
S1130070A436B107D9F720E0A4E6B0E001C01D9290
S1130080A536B207E1F70E9449000C946E000C9467
S113009000000E9469000E9457002FE38DE093E066
S11300A0215080409040E1F700C00000F4CFE0917F
S11300B06400F0E0E05AFF4F808185BB80916400CA
S11300C08F5F843019F08093640008951092640067
S11300D0089584B38F6084BBA89A0895F894FFCFE1
S10700E00C060309FA
S9030000FC
