S0140000554152542074657374696E672E73726563B6
S11300000C942A000C943F000C943F000C943F0085
S11300100C943F000C943F000C943F000C943F0060
S11300200C943F000C943F000C943F000C943F0050
S11300300C943F000C943F000C943F000C943F0040
S11300400C943F000C943F000C943F000C943F0030
S11300500C943F0011241FBECFE5D4E0DEBFCDBF1A
S113006010E0A0E6B0E0EEEEF0E002C005900D92E4
S1130070A636B107D9F70E9441000C9475000C9480
S113008000000E94510080E690E00E945F002FE98A
S113009086E891E0215080409040E1F700C00000E4
S11300A0F2CF82E08BB988E18AB986E880BD10BCC2
S11300B08CE089B908955D9BFECF8CB908950F93A8
S11300C01F93CF93FC018081882359F08F01C0E0F6
S11300D00E945B00CF5FF801EC0FF11D808181115C
S11100E0F7CFCF911F910F910895F894FFCFA1
S10900EE6D315F313800A2
S9030000FC
