S0180000554152542074657374696E67204D43322E73726563D0
S11300000C942A000C943F000C943F000C943F0085
S11300100C943F000C943F000C943F000C943F0060
S11300200C943F000C943F000C943F000C943F0050
S11300300C943F000C943F000C943F000C943F0040
S11300400C943F000C943F000C943F000C943F0030
S11300500C943F0011241FBECFE5D4E0DEBFCDBF1A
S113006010E0A0E6B0E0ECEEF0E002C005900D92E6
S1130070A836B107D9F70E9441000C9474000C947F
S113008000000E944C000E945A008031E1F780E693
S113009090E00E945E00FFCF82E08BB988E18AB9CC
S11300A086E880BD10BC8CE089B908955D9BFECFC5
S11300B08CB908955F9BFECF8CB108950F931F9365
S11300C0CF93FC018081882359F08F01C0E00E9406
S11300D05600CF5FF801EC0FF11D80818111F7CF3D
S10F00E0CF911F910F910895F894FFCF69
S10B00EC6D315F333023000085
S9030000FC
